{
  "_format": "hh-sol-artifact-1",
  "contractName": "WineDistributor",
  "sourceName": "contracts/WineDistributor.sol",
  "abi": [
    {
      "inputs": [
        {
          "internalType": "contract WineMarketplace",
          "name": "_marketplace",
          "type": "address"
        }
      ],
      "stateMutability": "nonpayable",
      "type": "constructor"
    },
    {
      "inputs": [
        {
          "internalType": "uint256",
          "name": "tokenId",
          "type": "uint256"
        }
      ],
      "name": "buyWine",
      "outputs": [],
      "stateMutability": "payable",
      "type": "function"
    },
    {
      "inputs": [
        {
          "internalType": "uint256",
          "name": "tokenId",
          "type": "uint256"
        },
        {
          "internalType": "uint256",
          "name": "price",
          "type": "uint256"
        }
      ],
      "name": "listWineForResale",
      "outputs": [],
      "stateMutability": "nonpayable",
      "type": "function"
    },
    {
      "inputs": [],
      "name": "marketplace",
      "outputs": [
        {
          "internalType": "contract WineMarketplace",
          "name": "",
          "type": "address"
        }
      ],
      "stateMutability": "view",
      "type": "function"
    },
    {
      "inputs": [
        {
          "internalType": "uint256",
          "name": "tokenId",
          "type": "uint256"
        }
      ],
      "name": "redeemWineNFT",
      "outputs": [],
      "stateMutability": "nonpayable",
      "type": "function"
    }
  ],
  "bytecode": "0x608060405234801561001057600080fd5b506040516102ea3803806102ea83398101604081905261002f91610054565b600080546001600160a01b0319166001600160a01b0392909216919091179055610084565b60006020828403121561006657600080fd5b81516001600160a01b038116811461007d57600080fd5b9392505050565b610257806100936000396000f3fe60806040526004361061003f5760003560e01c8063aaec226214610044578063abc8c7af14610066578063cbcf2349146100a2578063d7935776146100b5575b600080fd5b34801561005057600080fd5b5061006461005f3660046101e6565b6100d5565b005b34801561007257600080fd5b50600054610086906001600160a01b031681565b6040516001600160a01b03909116815260200160405180910390f35b6100646100b03660046101e6565b610136565b3480156100c157600080fd5b506100646100d03660046101ff565b610199565b6000546040516358dc2cdb60e01b8152600481018390526001600160a01b03909116906358dc2cdb90602401600060405180830381600087803b15801561011b57600080fd5b505af115801561012f573d6000803e3d6000fd5b5050505050565b600054604051630a3db05160e31b8152600481018390526001600160a01b03909116906351ed82889034906024016000604051808303818588803b15801561017d57600080fd5b505af1158015610191573d6000803e3d6000fd5b505050505050565b60005460405163250e0fc560e21b815260048101849052602481018390526001600160a01b03909116906394383f1490604401600060405180830381600087803b15801561017d57600080fd5b6000602082840312156101f857600080fd5b5035919050565b6000806040838503121561021257600080fd5b5050803592602090910135915056fea26469706673582212203fb8c90aaa4a53a190ba2223a138dd55c7081bd326ce15ad599296d7ce547eb364736f6c63430008140033",
  "linkReferences": {},
  "deployedLinkReferences": {}
}