{
  "_format": "hh-sol-artifact-1",
  "contractName": "WineProducer",
  "sourceName": "contracts/WineProducer.sol",
  "abi": [
    {
      "inputs": [
        {
          "internalType": "contract WineNFT",
          "name": "_wineNFT",
          "type": "address"
        }
      ],
      "stateMutability": "nonpayable",
      "type": "constructor"
    },
    {
      "anonymous": false,
      "inputs": [
        {
          "indexed": true,
          "internalType": "uint256",
          "name": "wineId",
          "type": "uint256"
        },
        {
          "indexed": true,
          "internalType": "address",
          "name": "producer",
          "type": "address"
        },
        {
          "indexed": false,
          "internalType": "string",
          "name": "wineName",
          "type": "string"
        },
        {
          "indexed": false,
          "internalType": "string",
          "name": "wineDescription",
          "type": "string"
        },
        {
          "indexed": false,
          "internalType": "uint256",
          "name": "price",
          "type": "uint256"
        },
        {
          "indexed": false,
          "internalType": "uint16",
          "name": "vintage",
          "type": "uint16"
        },
        {
          "indexed": false,
          "internalType": "string",
          "name": "grapeVariety",
          "type": "string"
        },
        {
          "indexed": false,
          "internalType": "uint16",
          "name": "numberOfBottles",
          "type": "uint16"
        },
        {
          "indexed": false,
          "internalType": "uint256",
          "name": "maturityDate",
          "type": "uint256"
        }
      ],
      "name": "WineNFTCreated",
      "type": "event"
    },
    {
      "inputs": [
        {
          "internalType": "string",
          "name": "wineName",
          "type": "string"
        },
        {
          "internalType": "string",
          "name": "wineDescription",
          "type": "string"
        },
        {
          "internalType": "uint256",
          "name": "price",
          "type": "uint256"
        },
        {
          "internalType": "uint16",
          "name": "vintage",
          "type": "uint16"
        },
        {
          "internalType": "string",
          "name": "grapeVariety",
          "type": "string"
        },
        {
          "internalType": "uint16",
          "name": "numberOfBottles",
          "type": "uint16"
        },
        {
          "internalType": "uint256",
          "name": "maturityDate",
          "type": "uint256"
        }
      ],
      "name": "createWineNFT",
      "outputs": [],
      "stateMutability": "payable",
      "type": "function"
    },
    {
      "inputs": [],
      "name": "wineNFT",
      "outputs": [
        {
          "internalType": "contract WineNFT",
          "name": "",
          "type": "address"
        }
      ],
      "stateMutability": "view",
      "type": "function"
    }
  ],
  "bytecode": "0x608060405234801561001057600080fd5b506040516104d13803806104d183398101604081905261002f91610054565b600080546001600160a01b0319166001600160a01b0392909216919091179055610084565b60006020828403121561006657600080fd5b81516001600160a01b038116811461007d57600080fd5b9392505050565b61043e806100936000396000f3fe6080604052600436106100295760003560e01c8063bc8648921461002e578063d892163d1461006a575b600080fd5b34801561003a57600080fd5b5060005461004e906001600160a01b031681565b6040516001600160a01b03909116815260200160405180910390f35b61007d610078366004610217565b61007f565b005b60008054604051634797e2b360e11b81526001600160a01b0390911690638f2fc5669034906100c0908c908c9033908d908d908d908d908d9060040161031a565b60206040518083038185885af11580156100de573d6000803e3d6000fd5b50505050506040513d601f19601f82011682018060405250810190610103919061038f565b9050336001600160a01b0316817f35832b29922668499a102da516a5202136e9a044f3e5b35e7b2f7df23c63ae238a8a8a8a8a8a8a60405161014b97969594939291906103a8565b60405180910390a35050505050505050565b634e487b7160e01b600052604160045260246000fd5b600082601f83011261018457600080fd5b813567ffffffffffffffff8082111561019f5761019f61015d565b604051601f8301601f19908116603f011681019082821181831017156101c7576101c761015d565b816040528381528660208588010111156101e057600080fd5b836020870160208301376000602085830101528094505050505092915050565b803561ffff8116811461021257600080fd5b919050565b600080600080600080600060e0888a03121561023257600080fd5b873567ffffffffffffffff8082111561024a57600080fd5b6102568b838c01610173565b985060208a013591508082111561026c57600080fd5b6102788b838c01610173565b975060408a0135965061028d60608b01610200565b955060808a01359150808211156102a357600080fd5b506102b08a828b01610173565b9350506102bf60a08901610200565b915060c0880135905092959891949750929550565b6000815180845260005b818110156102fa576020818501810151868301820152016102de565b506000602082860101526020601f19601f83011685010191505092915050565b600061010080835261032e8184018c6102d4565b90508281036020840152610342818b6102d4565b6001600160a01b038a1660408501526060840189905261ffff888116608086015284820360a086015290915061037882886102d4565b951660c0840152505060e001529695505050505050565b6000602082840312156103a157600080fd5b5051919050565b60e0815260006103bb60e083018a6102d4565b82810360208401526103cd818a6102d4565b905087604084015261ffff808816606085015283820360808501526103f282886102d4565b951660a0840152505060c001529594505050505056fea2646970667358221220134c579286c2eddcdee605bb9574dac76230355d03a7d4ebbe82d58ca4b2a12164736f6c63430008140033",
  "linkReferences": {},
  "deployedLinkReferences": {}
}