{
  "_format": "hh-sol-artifact-1",
  "contractName": "WineProducer",
  "sourceName": "contracts/WineProducer.sol",
  "abi": [
    {
      "inputs": [
        {
          "internalType": "contract WineNFT",
          "name": "_wineNFT",
          "type": "address"
        }
      ],
      "stateMutability": "nonpayable",
      "type": "constructor"
    },
    {
      "anonymous": false,
      "inputs": [
        {
          "indexed": true,
          "internalType": "uint256",
          "name": "wineId",
          "type": "uint256"
        },
        {
          "indexed": true,
          "internalType": "address",
          "name": "producer",
          "type": "address"
        },
        {
          "indexed": false,
          "internalType": "uint256",
          "name": "price",
          "type": "uint256"
        },
        {
          "indexed": false,
          "internalType": "uint16",
          "name": "vintage",
          "type": "uint16"
        },
        {
          "indexed": false,
          "internalType": "string",
          "name": "grapeVariety",
          "type": "string"
        },
        {
          "indexed": false,
          "internalType": "uint16",
          "name": "numberOfBottles",
          "type": "uint16"
        },
        {
          "indexed": false,
          "internalType": "uint256",
          "name": "maturityDate",
          "type": "uint256"
        }
      ],
      "name": "WineNFTCreated",
      "type": "event"
    },
    {
      "inputs": [
        {
          "internalType": "uint256",
          "name": "price",
          "type": "uint256"
        },
        {
          "internalType": "uint16",
          "name": "vintage",
          "type": "uint16"
        },
        {
          "internalType": "string",
          "name": "grapeVariety",
          "type": "string"
        },
        {
          "internalType": "uint16",
          "name": "numberOfBottles",
          "type": "uint16"
        },
        {
          "internalType": "uint256",
          "name": "maturityDate",
          "type": "uint256"
        }
      ],
      "name": "createWineNFT",
      "outputs": [],
      "stateMutability": "payable",
      "type": "function"
    },
    {
      "inputs": [],
      "name": "wineNFT",
      "outputs": [
        {
          "internalType": "contract WineNFT",
          "name": "",
          "type": "address"
        }
      ],
      "stateMutability": "view",
      "type": "function"
    }
  ],
  "bytecode": "0x608060405234801561001057600080fd5b506040516106c33803806106c383398101604081905261002f91610054565b600080546001600160a01b0319166001600160a01b0392909216919091179055610084565b60006020828403121561006657600080fd5b81516001600160a01b038116811461007d57600080fd5b9392505050565b610630806100936000396000f3fe6080604052600436106100295760003560e01c806315b7b9c61461002e578063bc86489214610043575b600080fd5b61004161003c366004610272565b61007f565b005b34801561004f57600080fd5b50600054610063906001600160a01b031681565b6040516001600160a01b03909116815260200160405180910390f35b600054604051631855631560e21b81526001600160a01b03909116906361558c549034906100bb9033908a908a908a908a908a90600401610377565b60206040518083038185885af11580156100d9573d6000803e3d6000fd5b50505050506040513d601f19601f820116820180604052508101906100fe91906103bd565b506000805460408051636ef1af7360e11b8152905133936001600160a01b039093169263dde35ee692600480820193918290030181865afa158015610147573d6000803e3d6000fd5b505050506040513d6000823e601f3d908101601f1916820160405261016f9190810190610455565b517fa5a53c46481f75727969e5c7e53340612fa3f8f143c5db7d5597b51e8583252087878787876040516101a79594939291906105c3565b60405180910390a35050505050565b61ffff811681146101c657600080fd5b50565b80356101d4816101b6565b919050565b634e487b7160e01b600052604160045260246000fd5b604051610120810167ffffffffffffffff81118282101715610213576102136101d9565b60405290565b604051601f8201601f1916810167ffffffffffffffff81118282101715610242576102426101d9565b604052919050565b600067ffffffffffffffff821115610264576102646101d9565b50601f01601f191660200190565b600080600080600060a0868803121561028a57600080fd5b85359450602086013561029c816101b6565b9350604086013567ffffffffffffffff8111156102b857600080fd5b8601601f810188136102c957600080fd5b80356102dc6102d78261024a565b610219565b8181528960208385010111156102f157600080fd5b81602084016020830137600060208383010152809550505050610316606087016101c9565b949793965091946080013592915050565b60005b8381101561034257818101518382015260200161032a565b50506000910152565b60008151808452610363816020860160208601610327565b601f01601f19169290920160200192915050565b60018060a01b0387168152856020820152600061ffff808716604084015260c060608401526103a960c084018761034b565b941660808301525060a00152949350505050565b6000602082840312156103cf57600080fd5b5051919050565b80516001600160a01b03811681146101d457600080fd5b80516101d4816101b6565b600082601f83011261040957600080fd5b81516104176102d78261024a565b81815284602083860101111561042c57600080fd5b61043d826020830160208701610327565b949350505050565b805180151581146101d457600080fd5b6000602080838503121561046857600080fd5b825167ffffffffffffffff8082111561048057600080fd5b818501915085601f83011261049457600080fd5b8151818111156104a6576104a66101d9565b8060051b6104b5858201610219565b91825283810185019185810190898411156104cf57600080fd5b86860192505b838310156105b6578251858111156104ec57600080fd5b8601610120818c03601f190181131561050457600080fd5b61050c6101ef565b89830151815261051e604084016103d6565b8a82015260608301516040820152610538608084016103ed565b606082015260a080840151898111156105515760008081fd5b61055f8f8d838801016103f8565b60808401525060c06105728186016103ed565b8284015260e09150818501518184015250610100610591818601610445565b828401526105a08486016103d6565b90830152508452505091860191908601906104d5565b9998505050505050505050565b858152600061ffff808716602084015260a060408401526105e760a084018761034b565b941660608301525060800152939250505056fea2646970667358221220fa5e8a2ed61916454d70419a593a3c786b4cff0dc1130bee70efd354632aeb1864736f6c63430008140033",
  "linkReferences": {},
  "deployedLinkReferences": {}
}