{
  "_format": "hh-sol-artifact-1",
  "contractName": "WineProducer",
  "sourceName": "contracts/WineProducer.sol",
  "abi": [
    {
      "inputs": [
        {
          "internalType": "contract WineNFT",
          "name": "_wineNFT",
          "type": "address"
        }
      ],
      "stateMutability": "nonpayable",
      "type": "constructor"
    },
    {
      "anonymous": false,
      "inputs": [
        {
          "indexed": true,
          "internalType": "uint256",
          "name": "wineId",
          "type": "uint256"
        },
        {
          "indexed": true,
          "internalType": "address",
          "name": "producer",
          "type": "address"
        },
        {
          "indexed": false,
          "internalType": "uint256",
          "name": "price",
          "type": "uint256"
        },
        {
          "indexed": false,
          "internalType": "uint16",
          "name": "vintage",
          "type": "uint16"
        },
        {
          "indexed": false,
          "internalType": "string",
          "name": "grapeVariety",
          "type": "string"
        },
        {
          "indexed": false,
          "internalType": "uint16",
          "name": "numberOfBottles",
          "type": "uint16"
        },
        {
          "indexed": false,
          "internalType": "uint256",
          "name": "maturityDate",
          "type": "uint256"
        }
      ],
      "name": "WineNFTCreated",
      "type": "event"
    },
    {
      "inputs": [
        {
          "internalType": "uint256",
          "name": "price",
          "type": "uint256"
        },
        {
          "internalType": "uint16",
          "name": "vintage",
          "type": "uint16"
        },
        {
          "internalType": "string",
          "name": "grapeVariety",
          "type": "string"
        },
        {
          "internalType": "uint16",
          "name": "numberOfBottles",
          "type": "uint16"
        },
        {
          "internalType": "uint256",
          "name": "maturityDate",
          "type": "uint256"
        }
      ],
      "name": "createWineNFT",
      "outputs": [],
      "stateMutability": "payable",
      "type": "function"
    },
    {
      "inputs": [],
      "name": "wineNFT",
      "outputs": [
        {
          "internalType": "contract WineNFT",
          "name": "",
          "type": "address"
        }
      ],
      "stateMutability": "view",
      "type": "function"
    }
  ],
  "bytecode": "0x608060405234801561001057600080fd5b5060405161040938038061040983398101604081905261002f91610054565b600080546001600160a01b0319166001600160a01b0392909216919091179055610084565b60006020828403121561006657600080fd5b81516001600160a01b038116811461007d57600080fd5b9392505050565b610376806100936000396000f3fe6080604052600436106100295760003560e01c806315b7b9c61461002e578063bc86489214610043575b600080fd5b61004161003c366004610180565b61007f565b005b34801561004f57600080fd5b50600054610063906001600160a01b031681565b6040516001600160a01b03909116815260200160405180910390f35b60008054604051631855631560e21b81526001600160a01b03909116906361558c549034906100bc9033908b908b908b908b908b906004016102aa565b60206040518083038185885af11580156100da573d6000803e3d6000fd5b50505050506040513d601f19601f820116820180604052508101906100ff91906102f0565b9050336001600160a01b0316817fa5a53c46481f75727969e5c7e53340612fa3f8f143c5db7d5597b51e858325208888888888604051610143959493929190610309565b60405180910390a3505050505050565b803561ffff8116811461016557600080fd5b919050565b634e487b7160e01b600052604160045260246000fd5b600080600080600060a0868803121561019857600080fd5b853594506101a860208701610153565b9350604086013567ffffffffffffffff808211156101c557600080fd5b818801915088601f8301126101d957600080fd5b8135818111156101eb576101eb61016a565b604051601f8201601f19908116603f011681019083821181831017156102135761021361016a565b816040528281528b602084870101111561022c57600080fd5b82602086016020830137600060208483010152809750505050505061025360608701610153565b949793965091946080013592915050565b6000815180845260005b8181101561028a5760208185018101518683018201520161026e565b506000602082860101526020601f19601f83011685010191505092915050565b60018060a01b0387168152856020820152600061ffff808716604084015260c060608401526102dc60c0840187610264565b941660808301525060a00152949350505050565b60006020828403121561030257600080fd5b5051919050565b858152600061ffff808716602084015260a0604084015261032d60a0840187610264565b941660608301525060800152939250505056fea2646970667358221220e551de5a5568af6fe633ac506758fe37c1ba25f7169bc71426abac4a6ac8732364736f6c63430008140033",
  "linkReferences": {},
  "deployedLinkReferences": {}
}